:0300000002096F83
:0C096F00787FE4F6D8FD7581070209814D
:1008C200C2807F107E271208E9D280C2817F107E0B
:1008D200271208E9D281C2827F107E271208E9D24C
:0708E20082C2837F107E2714
:0B08E900EF1FAC0670011E4C70F622E1
:0408F400AB07AA069E
:1008F800900000C3E5829BEA6480F8E583648098F1
:10090800500FE4F5801208E57580FF1208E5A38012
:01091800E2FC
:0109190022BB
:04085000AB07AA0642
:10085400900000C3E5829BEA6480F8E58364809895
:1008640050241208C2D283C2841208E5D284C285FD
:100874001208E5D285C2861208E5D286C28712081C
:06088400E5D287A380CD40
:01088A00224B
:04080000AB07AA0692
:10080400900000C3E5829BEA6480F8E583648098E5
:100814005039C2871208E5D287C2861208E5D2860B
:10082400C2851208E5D285C2841208E5D284120872
:10083400E3D283C2821208E5D282C2811208E5D2D1
:0B08440081C2801208E5D280A380B8BA
:01084F002286
:10091A00C2871208E5D287C2861208E5D286C28546
:0D092A001208E5D285C2841208E5D28422AD
:06097B001208C2D2832223
:10093700C2841208E5D284C2851208E5D285C28630
:0D0947001208E5D286C2871208E5D2872289
:100954001208E3D283C2821208E5D282C28112084D
:0B096400E5D281C2801208E5D280229B
:10088B00C2801208E5D280C2871208E5D287C281E6
:10089B001208E5D281C2861208E5D286C2821208FE
:1008AB00E5D282C2851208E5D2851208E3D283C253
:0708BB00841208E5D284223B
:0509810012088B80FB51
:00000001FF
