:03000000020C6D82
:0C0C6D00787FE4F6D8FD75811B020ABEFA
:100BE200456E7465722050617373776F72643A2038
:100BF20000436F72726563742070617373776F72F2
:100C0200640057726F6E672070617373776F7264DE
:060C120000313233340012
:100ABE00E4F508F509F50AF50BF50C780D7C00FD4B
:100ACE007BFF7A0C7913FE7F051208D0C2B27F38F5
:100ADE00120C837F0C120C837F06120C837F011283
:100AEE000C837F80120C837BFF7A0B79E2120C1839
:100AFE00120B7F8F08E508601CAF0A74122FF8A640
:100B0E0008EF24C0FF120C837F2A120C79050AE528
:100B1E000A70020509E50A6404450970C57F0112D1
:100B2E000C83E4F509F50A780D7C00FDFB7A00795B
:100B3E0012120AA1EF3395E0F50B8F0C450C7019CC
:100B4E00B2B27F80120C837BFF7A0B79F3120C18F2
:100B5E007FF47E01120C4D80897F80120C837BFF07
:100B6E007A0C7904120C187FF47E01120C4D020AD5
:010B7E00F086
:100B7F00E4FF7590FEE590B4EE027F31E590B4DEB0
:100B8F00027F32E590B4BE027F337590FDE590B4DD
:100B9F00ED027F34E590B4DD027F35E590B4BD0200
:100BAF007F367590FBE590B4EB027F37E590B4DBB1
:100BBF00027F38E590B4BB027F397590F7E590B4AA
:100BCF00E7027F2AE590B4D7027F30E590B4B702F1
:020BDF007F2372
:010BE10022F1
:060C18008B178A188919F0
:100C1E00E4F51AF51BF51AF51BAB17AA18A91985D9
:100C2E001B82851A831208F6FF600D120C79051BC4
:080C3E00E51B70E5051A80E1D9
:010C4600228B
:0A0C79008FA0D2B0120C47C2B122C6
:0A0C83008FA0C2B0120C47C2B122CC
:060C4700D2B17F0A7E001D
:100C4D00E4FDFCC3ED9FEC9E5015E4FAFB0BBB00DD
:0F0C5D00010ABA03F8BBE8F50DBD00010C80E4F5
:010C6C002265
:10080000E709F608DFFA8046E709F208DFFA803EDA
:1008100088828C83E709F0A3DFFA8032E309F608C7
:10082000DFFA8078E309F208DFFA807088828C832F
:10083000E309F0A3DFFA806489828A83E0A3F608E3
:10084000DFFA805889828A83E0A3F208DFFA804CBD
:1008500080D280FA80C680D4806980F28033801094
:1008600080A680EA809A80A880DA80E280CA8033FD
:1008700089828A83ECFAE493A3C8C582C8CCC58375
:10088000CCF0A3C8C582C8CCC583CCDFE9DEE78045
:100890000D89828A83E493A3F608DFF9ECFAA9F0C4
:1008A000EDFB2289828A83ECFAE0A3C8C582C8CC1A
:1008B000C583CCF0A3C8C582C8CCC583CCDFEADE33
:1008C000E880DB89828A83E493A3F208DFF980CC95
:1008D00088F0EF60010E4E60C388F0ED2402B4048E
:1008E0000050B9F582EB2402B4040050AF23234535
:0608F00082239008507302
:1008F600BB010CE58229F582E5833AF583E02250B7
:1009060006E92582F8E622BBFE06E92582F8E22200
:0D091600E58229F582E5833AF583E493221A
:10092300E3F5F009E208B5F06D606B80F3E3F5F0F1
:1009330009E608B5F060605E80F387F009E608B564
:10094300F054605280F487F009E208B5F04860463D
:1009530080F488828C8387F009E0A3B5F038603691
:1009630080F488828C8387F009E493A3B5F0276031
:100973002580F388828C83E3F5F009E0A3B5F016B4
:10098300601480F388828C83E3F5F009E493A3B5C4
:10099300F004600280F2020A4E808580E7808E8038
:1009A300D2803C8015806C807E809B80B5808B805C
:1009B300A1804F8070803A020A5A89828A83ECFAB6
:1009C300E493F5F0A3C8C582C8CCC583CCE493A354
:1009D300C8C582C8CCC583CCB5F070606E80E18990
:1009E300828A83E493F5F0A3E208B5F05E605C804D
:1009F300F289828A83E0F5F0A3E608B5F04D604BF7
:100A030080F389828A83E0F5F0A3E208B5F03C60C5
:100A13003A80F389828A83E493F5F0A3E608B5F07C
:100A23002A602880F2805389828A83ECFAE493F562
:100A3300F0A3C8C582C8CCC583CCE0A3C8C582C80F
:100A4300CCC583CCB5F004600280E27FFFB5F00231
:100A53000F2240027F012289828A83ECFAE0F5F0BB
:100A6300A3C8C582C8CCC583CCE0A3C8C582C8CC03
:100A7300C583CCB5F0D560D380E389828A83ECFA51
:100A8300E0F5F0A3C8C582C8CCC583CCE493A3C862
:100A9300C582C8CCC583CCB5F0B160AF80E288F025
:100AA300ED2402B4040050A3F582EB2402B4040045
:0B0AB3005099232345822390099C7377
:00000001FF
