:03000000020B5B95
:0C0B5B00787FE4F6D8FD75811D020BA226
:100E53000808FEFDFBF7EFDFBF7F08107FBFDFEF62
:040E6300F7FBFDFE9E
:100E3700C2A77F887E13120E48D2A7C2B07F887ED2
:010E47001397
:0B0E4800EF1FAC0670011E4C70F6227C
:040D9900AB07AA06F4
:100D9D00900000C3E5829BEA6480F8E58364809847
:100DAD005026E4F580F590F5A0F5B07F107E271262
:100DBD000E487580FF7590FF75A0FF75B0FF7F1011
:080DCD007E27120E48A380CB23
:010DD50022FB
:1008E600C280120E44D280C281120E44D281C282CC
:1008F600120E44D282C283120E44D283C284120ED6
:1009060044D284C285120E44D285C286120E44D2C7
:1009160086C287120E44D287C2A0120E44D2A0C24B
:10092600A1120E44D2A1C2A2120E44D2A2C2A31296
:100936000E44D2A3C2A4120E44D2A4C2A5120E44DF
:10094600D2A5C2A6120E44D2A6120E37D2B0C2B19A
:10095600120E44D2B1C2B2120E44D2B2C2B3120EB9
:1009660044D2B3C2B4120E44D2B4C2B5120E44D2AB
:10097600B5C2B6120E44D2B6C2B7120E44D2B7C230
:1009860090120E44D290C291120E44D291C292128B
:100996000E44D292C293120E44D293C294120E44C3
:1009A600D294C295120E44D295C296120E44D29695
:0809B600C297120E44D29722F1
:10080000C297120E44D297C297120E44D297C29644
:10081000120E44D296C295120E44D295C294120E74
:1008200044D294C293120E44D293C292120E44D276
:1008300092C291120E44D291C290120E44D290C232
:10084000B7120E44D2B7C2B6120E44D2B6C2B51217
:100850000E44D2B5C2B4120E44D2B4C2B3120E4486
:10086000D2B3C2B2120E44D2B2C2B1120E44D2B14D
:10087000120E42D2B0C2A7120E44D2A7C2A6120EC6
:1008800044D2A6C2A5120E44D2A5C2A4120E44D2CE
:10089000A4C2A3120E44D2A3C2A2120E44D2A2C278
:1008A000A1120E44D2A1C2A0120E44D2A0C287123D
:1008B0000E44D287C286120E44D286C285120E44DE
:1008C000D285C284120E44D284C283120E44D283D3
:1008D000C282120E44D282C281120E44D281C280E0
:0608E000120E44D280223A
:1009BE00C280120E44D280C297120E44D297C281C8
:1009CE00120E44D281C296120E44D296C282120EDA
:1009DE0044D282C295120E44D295C283120E44D2D4
:1009EE0083C294120E44D294C284120E44D284C294
:1009FE0093120E44D293C285120E44D285C2921225
:100A0E000E44D292C286120E44D286C291120E4467
:100A1E00D291C287120E44D287C290120E44D29047
:100A2E00C2A0120E44D2A0C2B7120E44D2B7C2A1B7
:100A3E00120E44D2A1C2B6120E44D2B6C2A2120EE9
:100A4E0044D2A2C2B5120E44D2B5C2A3120E44D2E3
:100A5E00A3C2B4120E44D2B4C2A4120E44D2A4C283
:100A6E00B3120E44D2B3C2A5120E44D2A5C2B21214
:100A7E000E44D2B2C2A6120E44D2A6C2B1120E4477
:080A8E00D2B1120E37D2B022E2
:100A9600C2A7120E44D2A7C2B7120E44D2B7C2A63C
:100AA600120E44D2A6C2B6120E44D2B6C2A5120E79
:100AB60044D2A5C2B5120E44D2B5C2A4120E44D277
:100AC600A4C2B4120E44D2B4C2A3120E44D2A3C21C
:100AD600B3120E44D2B3C2A2120E44D2A2C2B212B2
:100AE6000E44D2B2C2A1120E44D2A1C2B1120E4419
:100AF600D2B1C287120E44D287C297120E44D29741
:100B0600C286120E44D286C296120E44D296C28570
:100B1600120E44D285C295120E44D295C284120E8C
:100B260044D284C294120E44D294C283120E44D28A
:100B360083C293120E44D293C282120E44D282C250
:100B460092120E44D292C281120E44D281C29112E6
:050B56000E44D29122C3
:040CD1008E188F19D1
:100CD500E4FBFAC3EB9519E5186480F8EA6480989B
:100CE500502D900000AF8274082FF8E6FFF580AE16
:100CF5008274102EF8E6F5B08F90F5A0120E44A37D
:0F0D0500E5826408458370DD0BBB00010A80C4E2
:010D140022BC
:040D15008E1A8F1B88
:100D1900E4FBFAC3EB951BE51A6480F8EA64809852
:100D2900502D900000AF8274102FF8E6FFF590AEB9
:100D39008274082EF8E6F5A08F80F5B0120E44A350
:0F0D4900E5826408458370DD0BBB00010A80C49E
:010D58002278
:040DD6008E1C8F1DC3
:100DDA00E4FBFAC3EB951DE51C6480F8EA6480988D
:100DEA005025900000AF8274082FF8E6F5B0F5A000
:100DFA00F590F580120E44A3E5826408458370E5F8
:070E0A000BBB00010A80CCC4
:010E110022BE
:040D59008E1C8F1D40
:100D5D00E4FBFAC3EB951DE51C6480F8EA6480980A
:100D6D005029900000AF8274102FF8E6F5B0F5A071
:100D7D00F590F5807F107E27120E48A3E58264085A
:0B0D8D00458370E10BBB00010A80C829
:010D98002238
:040BE7008E1C8F1DB4
:100BEB00E4FBFAC3EB951DE51C6480F8EA6480987E
:100BFB005037900000E4F590F58075B0FF75A0FFBD
:100C0B007F107E27120E487590FF7580FFE4F5B0BC
:100C1B00F5A07F107E27120E48A3E582640845835A
:090C2B0070D30BBB00010A80BA72
:010C3400229D
:040C35008E1C8F1D65
:100C3900E4FBFAC3EB951DE51C6480F8EA6480982F
:100C49005037900000E4F5A0F58075B0FF7590FF6E
:100C59007F107E27120E4875A0FF7580FFE4F5B05E
:100C6900F5907F107E27120E48A3E582640845831C
:090C790070D30BBB00010A80BA24
:010C8200224F
:040C83008E1C8F1D17
:100C8700E4FBFAC3EB951DE51C6480F8EA648098E1
:100C97005037900000E4F5B0F58075A0FF7590FF20
:100CA7007F107E27120E4875B0FF7580FFE4F5A010
:100CB700F5907F107E27120E48A3E58264084583CE
:090CC70070D30BBB00010A80BAD6
:010CD0002201
:100E12007F057E00120DD67F057E00120D597F05DB
:100E22007E00120BE77F057E00120C357F057E00E7
:050E3200120C8380DBBF
:100B6700020E12E493A3F8E493A34003F68001F284
:100B770008DFF48029E493A3F85407240CC8C3338F
:100B8700C4540F4420C8834004F456800146F6DF5E
:100B9700E4800B0102040810204080900E53E47E8D
:100BA700019360BCA3FF543F30E509541FFEE49353
:100BB700A360010ECF54C025E060A840B8E493A31A
:100BC700FAE493A3F8E493A3C8C582C8CAC583CA45
:100BD700F0A3C8C582C8CAC583CADFE9DEE780BEFD
:010E6700008A
:00000001FF
