:030000000208B340
:0C08B300787FE4F6D8FD7581230208FA76
:1009E1000A12407924301912027800100A08C0F95D
:0809F100A4B0999282F88090F5
:0609A900D2847FC87EAF7E
:1009AF00AD07AC06EF1FAA0670011E4A70F6ED1DCB
:0809BF00AE0470011C4E70F63D
:0109C700220D
:10080000C285C284C283C282C281C280D2861209DA
:10081000ABC282C281D286D285D284D283D28012E8
:1008200009ABC286C284C283C281C280D285D28211
:100830001209ABC286C282C283C281C280D2851233
:1008400009A9C286C285C282C281D280D284D283E3
:100850001209ABC286C282C285C280C283D2811213
:1008600009A9C286C282C285C280C283C284D281E3
:100870001209ABC281C282C280D286D285D284D212
:10088000831209ABC286C285C284C283C282C2817E
:10089000C2801209ABC286C285C283C282C281C233
:1008A000801209A9D286D285D284D283D282D28103
:0308B000D28022D1
:10098400E4F520F52174122521F8E6F5801209AB6F
:100994000521E52170020520C3940AE520648094B2
:0509A4008040E280DB51
:10093F00E4F51CF51D7412251DF8E6F580E4F51E8F
:10094F00F51F7412251FF8E6F5A01209AB051FE578
:10095F001F7002051EC3940AE51E6480948040E256
:10096F00051DE51D7002051CC3940AE51C648094E7
:05097F008040C280BBB6
:1009C800900000AF8274082FF8E6F5B01209ABA3C7
:0809D800E582640A458370EB1F
:0109E00022F4
:0309FA000209C827
:1008BF000209FAE493A3F8E493A34003F68001F24C
:1008CF0008DFF48029E493A3F85407240CC8C3333A
:1008DF00C4540F4420C8834004F456800146F6DF09
:1008EF00E4800B01020408102040809009E1E47EAF
:1008FF00019360BCA3FF543F30E509541FFEE493FE
:10090F00A360010ECF54C025E060A840B8E493A3C4
:10091F00FAE493A3F8E493A3C8C582C8CAC583CAEF
:10092F00F0A3C8C582C8CAC583CADFE9DEE780BEA7
:0109F90000FD
:00000001FF
