:03000000020AC829
:0C0AC800787FE4F6D8FD75811B020B0F4F
:100CD9000808FEFDFBF7EFDFBF7F08107FBFDFEFDE
:040CE900F7FBFDFE1A
:100C6900C2837F307E75120C9BD283C2847F307E13
:100C790075120C9BD284C2857F307E75120C9BD273
:100C890085C2867F307E75120C9BD286C2877F30E3
:020C99007E7566
:0B0C9B00EF1FAC0670011E4C70F6222B
:040CA600AB07AA06E8
:100CAA00900000C3E5829BEA6480F8E5836480983B
:100CBA00501CE4F580F5A0F5B0120C977580FF750D
:0E0CCA0090FF75A0FF75B0FF120C97A380D5A8
:010CD80022F9
:0409C000AB07AA06D1
:1009C400900000C3E5829BEA6480F8E58364809824
:1009D4004003020AC7C280120C97D280C281120C53
:1009E40097D281C282120C97D282120C69D287C22A
:1009F400A0120C97D2A0C2A1120C97D2A1C2A2122B
:100A04000C97D2A2C2A3120C97D2A3C2A4120C9721
:100A1400D2A4C282120C97D282C2A5120C97D2A57C
:100A2400C2A6120C97D2A6C2A7120C97D2A7C28351
:100A3400120C97D283120C95D287C2B0120C97D2A3
:100A4400B0C2B1120C97D2B1C2B2120C97D2B2C2D8
:100A5400A0120C97D2A0C2A4120C97D2A4C2B312B3
:100A64000C97D2B3C280120C97D280C2B4120C97E6
:100A7400D2B4C2B5120C97D2B5C2B6120C97D2B684
:100A8400C2B7120C97D2B7C290120C97D290C291EF
:100A9400120C97D291C292120C97D292C293120C5A
:100AA40097D293C294120C97D294C295120C97D2F7
:100AB40095C296120C97D296C297120C97D297A30E
:030AC4000209C75D
:010AC700220C
:04080000AB07AA0692
:10080400900000C3E5829BEA6480F8E583648098E5
:1008140040030209BFC2977F107E27120C9BD29718
:10082400C2967F107E27120C9BD296C2957F107EB3
:1008340027120C9BD295C2947F107E27120C9BD258
:1008440094C2937F107E27120C9BD293C2927F1086
:100854007E27120C9BD292C2917F107E27120C9B92
:10086400D291C2907F107E27120C9BD290C2B77F88
:10087400107E27120C9BD2B7C2B67F107E27120CB3
:100884009BD2B6C2B57F107E27120C9BD2B5C2B4E0
:100894007F107E27120C9BD2B4C2807F107E271259
:1008A4000C9BD280C2B37F107E27120C9BD2B3C2A2
:1008B400A47F107E27120C9BD2A4C2A07F107E2797
:1008C400120C9BD2A0C2B27F107E27120C9BD2B214
:1008D400C2B17F107E27120C9BD2B1C2B07F107EB2
:1008E40027120C9BD2B0C2877F107E27120C9BD29A
:1008F40087C2837F107E27120C9BD283C2A77F10EE
:100904007E27120C9BD2A7C2A67F107E27120C9BB7
:10091400D2A6C2A57F107E27120C9BD2A5C2827FCD
:10092400107E27120C9BD282C2A47F107E27120C49
:100934009BD2A4C2A37F107E27120C9BD2A3C2A277
:100944007F107E27120C9BD2A2C2A17F107E271299
:100954000C9BD2A1C2A07F107E27120C9BD2A0C2F6
:10096400877F107E27120C9BD287C2867F107E273A
:10097400120C9BD286C2857F107E27120C9BD285D7
:10098400C2847F107E27120C9BD284C2837F107E88
:1009940027120C9BD283C2827F107E27120C9BD21B
:1009A40082C2817F107E27120C9BD281C2807F106D
:0B09B4007E27120C9BD280A3020807D4
:0109BF002215
:040C2B008E188F1977
:100C2F00E4FBFAC3EB9519E5186480F8EA64809841
:100C3F005027900000AF8274082FF8E6F5B0F5A0AA
:100C4F00F5807F887E13120C9BA3E5826408458391
:090C5F0070E30BBB00010A80CA1E
:010C68002269
:040BDD008E1A8F1BC2
:100BE100E4FBFAC3EB951BE51A6480F8EA6480988C
:100BF1005037900000E4F590F58075B0FF75A0FFC7
:100C01007F107E27120C9B7590FF7580FFE4F5B075
:100C1100F5A07F107E27120C9BA3E5826408458313
:090C210070D30BBB00010A80BA7C
:010C2A0022A7
:040B5400AB07AA063B
:100B5800900000C3E5829BEA6480F8E5836480988E
:100B68005072C280120C97D280C281120C97D28127
:100B7800C282120C97D282C2A5120C97D2A5C2A625
:100B8800120C97D2A6C2A7120C97D2A7120C69D240
:100B980087C2B0120C97D2B0C2B1120C97D2B1C2B0
:100BA800B2120C97D2B2C2A0120C97D2A0C2A11254
:100BB8000C97D2A1C2A2120C97D2A2C2A3120C9770
:100BC800D2A3C2A4120C97D2A4C2B3120C97D2B368
:040BD800A3020B5B0E
:010BDC0022F6
:090CEE007F027E00120B5480F716
:100AD400020CEEE493A3F8E493A34003F68001F23E
:100AE40008DFF48029E493A3F85407240CC8C33323
:100AF400C4540F4420C8834004F456800146F6DFF2
:100B0400E4800B0102040810204080900CD9E47E9C
:100B1400019360BCA3FF543F30E509541FFEE493E6
:100B2400A360010ECF54C025E060A840B8E493A3AD
:100B3400FAE493A3F8E493A3C8C582C8CAC583CAD8
:100B4400F0A3C8C582C8CAC583CADFE9DEE780BE90
:010CED000006
:00000001FF
