:03000000020800F3
:0C080000787FE4F6D8FD758115020847EA
:0C0940000A08C0F9A4B0999282F88090D7
:08091900F8E6F5807F0A7E007C
:10092100EF1FAC0670011E4C6014758901758CFCBB
:0F093100758A18D28C308DFDC28DC28C80E22267
:10088C00EF75F00A84F515EF75F00A84A9F0ED7593
:10089C00F00A84FBED75F00A84ADF0E4FAC2A074A2
:1008AC00082515120919D2A0C2A174082912091918
:1008BC00D2A1C2A274082B120919D2A2C2A3740825
:0A08CC002D120919D2A30ABA19D39C
:0108D60022FF
:1008D700E4F512F513F514C2B0B2B0AD13AF1212AE
:1008E700088CE514B43B020513E513B43B0205126B
:1008F70020B602051220B7020513E513D3943B4037
:1009070003E4F513E512D394174003E4F512C2B7D5
:0209170080C797
:10080C000208D7E493A3F8E493A34003F68001F223
:10081C0008DFF48029E493A3F85407240CC8C333ED
:10082C00C4540F4420C8834004F456800146F6DFBC
:10083C00E4800B0102040810204080900940E47E03
:10084C00019360BCA3FF543F30E509541FFEE493B1
:10085C00A360010ECF54C025E060A840B8E493A378
:10086C00FAE493A3F8E493A3C8C582C8CAC583CAA3
:10087C00F0A3C8C582C8CAC583CADFE9DEE780BE5B
:01094C0000AA
:00000001FF
