:03000000020800F3
:0C080000787FE4F6D8FD758113020847EC
:0C0999000A08407924301912027800107E
:06098800D2807F507EC307
:0B098E00EF1FAC0670011E4C70F6223B
:04088C008E128F1326
:100890007B027A00C3EB9513E5126480F8EA64806A
:1008A00098403E900009C3E5829513E5126480F8F4
:1008B000E583648098402374082BF8E6F5A0AF82A6
:1008C00074082FF8E6F5B0C280D282D28112098A6C
:1008D000E582158270D0158380CCEB1B70B61A8030
:0108E000B364
:0108E10022F4
:04093600AB07AA065B
:10093A00E4F512F513900009C3E5829BEA6480F896
:10094A00E583648098402274082513F8E6F5A0AF81
:10095A008274082FF8E6F5B0C281D282120988E5BE
:09096A0082158270D3158380CF41
:010973002261
:0408E2008E128F13D0
:1008E6007B027A00C3EB9513E5126480F8EA648014
:1008F60098403C900009C3E5829513E5126480F8A0
:10090600E583648098402174082BF8E6F5A0AF8251
:1009160074082FF8E6F5B0C282D281120988E58202
:0F092600158270D2158380CEEB1B70B81A80B586
:01093500229F
:10097400E4FFFE12088CE4FFFE120936E4FFFE12C7
:0409840008E280EC19
:10080C00020974E493A3F8E493A34003F68001F285
:10081C0008DFF48029E493A3F85407240CC8C333ED
:10082C00C4540F4420C8834004F456800146F6DFBC
:10083C00E4800B0102040810204080900999E47EAA
:10084C00019360BCA3FF543F30E509541FFEE493B1
:10085C00A360010ECF54C025E060A840B8E493A378
:10086C00FAE493A3F8E493A3C8C582C8CAC583CAA3
:10087C00F0A3C8C582C8CAC583CADFE9DEE780BE5B
:0109A5000051
:00000001FF
